{
  "contractName": "DevContest",
  "abi": [
    {
      "constant": true,
      "inputs": [],
      "name": "endBlock",
      "outputs": [
        {
          "name": "",
          "type": "uint256"
        }
      ],
      "payable": false,
      "type": "function",
      "stateMutability": "view"
    },
    {
      "constant": true,
      "inputs": [
        {
          "name": "",
          "type": "address"
        }
      ],
      "name": "hasVoted",
      "outputs": [
        {
          "name": "",
          "type": "bool"
        }
      ],
      "payable": false,
      "type": "function",
      "stateMutability": "view"
    },
    {
      "constant": true,
      "inputs": [
        {
          "name": "",
          "type": "address"
        }
      ],
      "name": "voterCount",
      "outputs": [
        {
          "name": "",
          "type": "uint256"
        }
      ],
      "payable": false,
      "type": "function",
      "stateMutability": "view"
    },
    {
      "constant": false,
      "inputs": [
        {
          "name": "_url",
          "type": "string"
        }
      ],
      "name": "registerSubmission",
      "outputs": [
        {
          "name": "success",
          "type": "bool"
        }
      ],
      "payable": false,
      "type": "function",
      "stateMutability": "nonpayable"
    },
    {
      "constant": false,
      "inputs": [
        {
          "name": "_subAddress",
          "type": "address"
        },
        {
          "name": "_index",
          "type": "uint256"
        }
      ],
      "name": "approveSubmission",
      "outputs": [
        {
          "name": "success",
          "type": "bool"
        }
      ],
      "payable": false,
      "type": "function",
      "stateMutability": "nonpayable"
    },
    {
      "constant": true,
      "inputs": [],
      "name": "getUnapprovedSubmissionAddresses",
      "outputs": [
        {
          "name": "submissions",
          "type": "address[]"
        }
      ],
      "payable": false,
      "type": "function",
      "stateMutability": "view"
    },
    {
      "constant": true,
      "inputs": [
        {
          "name": "",
          "type": "uint256"
        }
      ],
      "name": "approvedSubmissions",
      "outputs": [
        {
          "name": "",
          "type": "address"
        }
      ],
      "payable": false,
      "type": "function",
      "stateMutability": "view"
    },
    {
      "constant": false,
      "inputs": [
        {
          "name": "_amount",
          "type": "uint256"
        }
      ],
      "name": "addBounty",
      "outputs": [],
      "payable": false,
      "type": "function",
      "stateMutability": "nonpayable"
    },
    {
      "constant": false,
      "inputs": [
        {
          "name": "_unfortunateSubmission",
          "type": "address"
        }
      ],
      "name": "removeVote",
      "outputs": [
        {
          "name": "success",
          "type": "bool"
        }
      ],
      "payable": false,
      "type": "function",
      "stateMutability": "nonpayable"
    },
    {
      "constant": true,
      "inputs": [],
      "name": "winningAddress",
      "outputs": [
        {
          "name": "",
          "type": "address"
        }
      ],
      "payable": false,
      "type": "function",
      "stateMutability": "view"
    },
    {
      "constant": false,
      "inputs": [
        {
          "name": "_amount",
          "type": "uint256"
        }
      ],
      "name": "releaseStake",
      "outputs": [
        {
          "name": "success",
          "type": "bool"
        }
      ],
      "payable": false,
      "type": "function",
      "stateMutability": "nonpayable"
    },
    {
      "constant": true,
      "inputs": [],
      "name": "startBlock",
      "outputs": [
        {
          "name": "",
          "type": "uint256"
        }
      ],
      "payable": false,
      "type": "function",
      "stateMutability": "view"
    },
    {
      "constant": false,
      "inputs": [
        {
          "name": "_favoriteSubmission",
          "type": "address"
        }
      ],
      "name": "vote",
      "outputs": [
        {
          "name": "success",
          "type": "bool"
        }
      ],
      "payable": false,
      "type": "function",
      "stateMutability": "nonpayable"
    },
    {
      "constant": true,
      "inputs": [
        {
          "name": "",
          "type": "address"
        }
      ],
      "name": "submissions",
      "outputs": [
        {
          "name": "submissionOwner",
          "type": "address"
        },
        {
          "name": "isApproved",
          "type": "bool"
        },
        {
          "name": "url",
          "type": "string"
        },
        {
          "name": "id",
          "type": "uint256"
        },
        {
          "name": "votes",
          "type": "uint256"
        }
      ],
      "payable": false,
      "type": "function",
      "stateMutability": "view"
    },
    {
      "constant": true,
      "inputs": [],
      "name": "owner",
      "outputs": [
        {
          "name": "",
          "type": "address"
        }
      ],
      "payable": false,
      "type": "function",
      "stateMutability": "view"
    },
    {
      "constant": true,
      "inputs": [
        {
          "name": "",
          "type": "uint256"
        }
      ],
      "name": "unapprovedSubmissions",
      "outputs": [
        {
          "name": "",
          "type": "address"
        }
      ],
      "payable": false,
      "type": "function",
      "stateMutability": "view"
    },
    {
      "constant": true,
      "inputs": [],
      "name": "bounty",
      "outputs": [
        {
          "name": "",
          "type": "uint256"
        }
      ],
      "payable": false,
      "type": "function",
      "stateMutability": "view"
    },
    {
      "constant": false,
      "inputs": [
        {
          "name": "_amount",
          "type": "uint256"
        }
      ],
      "name": "stake",
      "outputs": [
        {
          "name": "success",
          "type": "bool"
        }
      ],
      "payable": false,
      "type": "function",
      "stateMutability": "nonpayable"
    },
    {
      "constant": true,
      "inputs": [],
      "name": "id",
      "outputs": [
        {
          "name": "",
          "type": "uint256"
        }
      ],
      "payable": false,
      "type": "function",
      "stateMutability": "view"
    },
    {
      "constant": true,
      "inputs": [],
      "name": "highestVote",
      "outputs": [
        {
          "name": "",
          "type": "uint256"
        }
      ],
      "payable": false,
      "type": "function",
      "stateMutability": "view"
    },
    {
      "constant": true,
      "inputs": [],
      "name": "getApprovedSubmissionAddresses",
      "outputs": [
        {
          "name": "submissions",
          "type": "address[]"
        }
      ],
      "payable": false,
      "type": "function",
      "stateMutability": "view"
    },
    {
      "constant": false,
      "inputs": [],
      "name": "checkContestStatus",
      "outputs": [
        {
          "name": "",
          "type": "uint256"
        }
      ],
      "payable": false,
      "type": "function",
      "stateMutability": "nonpayable"
    },
    {
      "constant": false,
      "inputs": [],
      "name": "completeContest",
      "outputs": [],
      "payable": false,
      "type": "function",
      "stateMutability": "nonpayable"
    },
    {
      "constant": true,
      "inputs": [
        {
          "name": "",
          "type": "address"
        }
      ],
      "name": "stakedAmount",
      "outputs": [
        {
          "name": "",
          "type": "uint256"
        }
      ],
      "payable": false,
      "type": "function",
      "stateMutability": "view"
    },
    {
      "constant": true,
      "inputs": [],
      "name": "token",
      "outputs": [
        {
          "name": "",
          "type": "address"
        }
      ],
      "payable": false,
      "type": "function",
      "stateMutability": "view"
    },
    {
      "inputs": [
        {
          "name": "_tokenAddress",
          "type": "address"
        },
        {
          "name": "_startBlock",
          "type": "uint256"
        },
        {
          "name": "_endBlock",
          "type": "uint256"
        }
      ],
      "payable": false,
      "type": "constructor",
      "stateMutability": "nonpayable"
    },
    {
      "anonymous": false,
      "inputs": [
        {
          "indexed": true,
          "name": "_from",
          "type": "address"
        },
        {
          "indexed": false,
          "name": "_value",
          "type": "uint256"
        }
      ],
      "name": "Staked",
      "type": "event"
    },
    {
      "anonymous": false,
      "inputs": [
        {
          "indexed": true,
          "name": "_from",
          "type": "address"
        },
        {
          "indexed": false,
          "name": "_value",
          "type": "uint256"
        }
      ],
      "name": "StakeReleased",
      "type": "event"
    },
    {
      "anonymous": false,
      "inputs": [
        {
          "indexed": true,
          "name": "owner",
          "type": "address"
        }
      ],
      "name": "SubmissionRegistered",
      "type": "event"
    }
  ],
  "bytecode": "0x6060604052341561000f57600080fd5b604051606080611fd98339810160405280805190602001909190805190602001909190805190602001909190505033600160006101000a81548173ffffffffffffffffffffffffffffffffffffffff021916908373ffffffffffffffffffffffffffffffffffffffff160217905550826000806101000a81548173ffffffffffffffffffffffffffffffffffffffff021916908373ffffffffffffffffffffffffffffffffffffffff16021790555081600c8190555080600d81905550505050611efb806100de6000396000f300606060405260043610610149576000357c0100000000000000000000000000000000000000000000000000000000900463ffffffff168063083c63231461014e57806309eef43e146101775780630aeb4645146101c8578063224cf71d14610215578063239618b71461028a5780632a2dbe28146102e457806334950dcf1461034e57806338e43895146103b15780633ccc1f53146103d45780633ea8b3bc1461042557806345f544851461047a57806348cd4cb1146104b55780636dd7d8ea146104de57806389e14e161461052f5780638da5cb5b1461064a578063910f15fc1461069f578063943dfef114610702578063a694fc3a1461072b578063af640d0f14610766578063b3a4dc2f1461078f578063ce70d179146107b8578063de360c9b14610822578063f8e737ef14610837578063f99318551461084c578063fc0c546a14610899575b600080fd5b341561015957600080fd5b6101616108ee565b6040518082815260200191505060405180910390f35b341561018257600080fd5b6101ae600480803573ffffffffffffffffffffffffffffffffffffffff169060200190919050506108f4565b604051808215151515815260200191505060405180910390f35b34156101d357600080fd5b6101ff600480803573ffffffffffffffffffffffffffffffffffffffff16906020019091905050610914565b6040518082815260200191505060405180910390f35b341561022057600080fd5b610270600480803590602001908201803590602001908080601f0160208091040260200160405190810160405280939291908181526020018383808284378201915050505050509190505061092c565b604051808215151515815260200191505060405180910390f35b341561029557600080fd5b6102ca600480803573ffffffffffffffffffffffffffffffffffffffff16906020019091908035906020019091905050610af5565b604051808215151515815260200191505060405180910390f35b34156102ef57600080fd5b6102f7610c70565b6040518080602001828103825283818151815260200191508051906020019060200280838360005b8381101561033a57808201518184015260208101905061031f565b505050509050019250505060405180910390f35b341561035957600080fd5b61036f6004808035906020019091905050610d04565b604051808273ffffffffffffffffffffffffffffffffffffffff1673ffffffffffffffffffffffffffffffffffffffff16815260200191505060405180910390f35b34156103bc57600080fd5b6103d26004808035906020019091905050610d43565b005b34156103df57600080fd5b61040b600480803573ffffffffffffffffffffffffffffffffffffffff16906020019091905050610ff5565b604051808215151515815260200191505060405180910390f35b341561043057600080fd5b6104386111de565b604051808273ffffffffffffffffffffffffffffffffffffffff1673ffffffffffffffffffffffffffffffffffffffff16815260200191505060405180910390f35b341561048557600080fd5b61049b6004808035906020019091905050611204565b604051808215151515815260200191505060405180910390f35b34156104c057600080fd5b6104c86113e0565b6040518082815260200191505060405180910390f35b34156104e957600080fd5b610515600480803573ffffffffffffffffffffffffffffffffffffffff169060200190919050506113e6565b604051808215151515815260200191505060405180910390f35b341561053a57600080fd5b610566600480803573ffffffffffffffffffffffffffffffffffffffff1690602001909190505061160d565b604051808673ffffffffffffffffffffffffffffffffffffffff1673ffffffffffffffffffffffffffffffffffffffff16815260200185151515158152602001806020018481526020018381526020018281038252858181546001816001161561010002031660029004815260200191508054600181600116156101000203166002900480156106375780601f1061060c57610100808354040283529160200191610637565b820191906000526020600020905b81548152906001019060200180831161061a57829003601f168201915b5050965050505050505060405180910390f35b341561065557600080fd5b61065d61166f565b604051808273ffffffffffffffffffffffffffffffffffffffff1673ffffffffffffffffffffffffffffffffffffffff16815260200191505060405180910390f35b34156106aa57600080fd5b6106c06004808035906020019091905050611695565b604051808273ffffffffffffffffffffffffffffffffffffffff1673ffffffffffffffffffffffffffffffffffffffff16815260200191505060405180910390f35b341561070d57600080fd5b6107156116d4565b6040518082815260200191505060405180910390f35b341561073657600080fd5b61074c60048080359060200190919050506116da565b604051808215151515815260200191505060405180910390f35b341561077157600080fd5b6107796119ca565b6040518082815260200191505060405180910390f35b341561079a57600080fd5b6107a26119d0565b6040518082815260200191505060405180910390f35b34156107c357600080fd5b6107cb6119d6565b6040518080602001828103825283818151815260200191508051906020019060200280838360005b8381101561080e5780820151818401526020810190506107f3565b505050509050019250505060405180910390f35b341561082d57600080fd5b610835611a6a565b005b341561084257600080fd5b61084a611a91565b005b341561085757600080fd5b610883600480803573ffffffffffffffffffffffffffffffffffffffff16906020019091905050611c24565b6040518082815260200191505060405180910390f35b34156108a457600080fd5b6108ac611c3c565b604051808273ffffffffffffffffffffffffffffffffffffffff1673ffffffffffffffffffffffffffffffffffffffff16815260200191505060405180910390f35b600d5481565b60046020528060005260406000206000915054906101000a900460ff1681565b60036020528060005260406000206000915090505481565b6000610936611d88565b61093e611a6a565b33816000019073ffffffffffffffffffffffffffffffffffffffff16908173ffffffffffffffffffffffffffffffffffffffff16815250506000816020019015159081151581525050828160400181905250600954816060018181525050600160096000828254019250508190555080600560003373ffffffffffffffffffffffffffffffffffffffff1673ffffffffffffffffffffffffffffffffffffffff16815260200190815260200160002060008201518160000160006101000a81548173ffffffffffffffffffffffffffffffffffffffff021916908373ffffffffffffffffffffffffffffffffffffffff16021790555060208201518160000160146101000a81548160ff0219169083151502179055506040820151816001019080519060200190610a70929190611dd6565b50606082015181600201556080820151816003015590505060068054806001018281610a9c9190611e56565b9160005260206000209001600033909190916101000a81548173ffffffffffffffffffffffffffffffffffffffff021916908373ffffffffffffffffffffffffffffffffffffffff160217905550506001915050919050565b6000803373ffffffffffffffffffffffffffffffffffffffff16600160009054906101000a900473ffffffffffffffffffffffffffffffffffffffff1673ffffffffffffffffffffffffffffffffffffffff16141515610b5457600080fd5b82600680549050111515610b6757600080fd5b600560008573ffffffffffffffffffffffffffffffffffffffff1673ffffffffffffffffffffffffffffffffffffffff168152602001908152602001600020905060018160000160146101000a81548160ff02191690831515021790555060078054806001018281610bd99190611e56565b9160005260206000209001600086909190916101000a81548173ffffffffffffffffffffffffffffffffffffffff021916908373ffffffffffffffffffffffffffffffffffffffff16021790555050600683815481101515610c3757fe5b906000526020600020900160006101000a81549073ffffffffffffffffffffffffffffffffffffffff0219169055600191505092915050565b610c78611e82565b6006805480602002602001604051908101604052809291908181526020018280548015610cfa57602002820191906000526020600020905b8160009054906101000a900473ffffffffffffffffffffffffffffffffffffffff1673ffffffffffffffffffffffffffffffffffffffff1681526020019060010190808311610cb0575b5050505050905090565b600781815481101515610d1357fe5b90600052602060002090016000915054906101000a900473ffffffffffffffffffffffffffffffffffffffff1681565b60003373ffffffffffffffffffffffffffffffffffffffff16600160009054906101000a900473ffffffffffffffffffffffffffffffffffffffff1673ffffffffffffffffffffffffffffffffffffffff16141515610da157600080fd5b6000809054906101000a900473ffffffffffffffffffffffffffffffffffffffff1673ffffffffffffffffffffffffffffffffffffffff1663dd62ed3e33306000604051602001526040518363ffffffff167c0100000000000000000000000000000000000000000000000000000000028152600401808373ffffffffffffffffffffffffffffffffffffffff1673ffffffffffffffffffffffffffffffffffffffff1681526020018273ffffffffffffffffffffffffffffffffffffffff1673ffffffffffffffffffffffffffffffffffffffff16815260200192505050602060405180830381600087803b1515610e9957600080fd5b6102c65a03f11515610eaa57600080fd5b505050604051805190509050818110151515610ec557600080fd5b816008600082825401925050819055506000809054906101000a900473ffffffffffffffffffffffffffffffffffffffff1673ffffffffffffffffffffffffffffffffffffffff166323b872dd3330856000604051602001526040518463ffffffff167c0100000000000000000000000000000000000000000000000000000000028152600401808473ffffffffffffffffffffffffffffffffffffffff1673ffffffffffffffffffffffffffffffffffffffff1681526020018373ffffffffffffffffffffffffffffffffffffffff1673ffffffffffffffffffffffffffffffffffffffff1681526020018281526020019350505050602060405180830381600087803b1515610fd557600080fd5b6102c65a03f11515610fe657600080fd5b50505060405180519050505050565b6000806000600260003373ffffffffffffffffffffffffffffffffffffffff1673ffffffffffffffffffffffffffffffffffffffff1681526020019081526020016000205411151561104657600080fd5b60011515600460003373ffffffffffffffffffffffffffffffffffffffff1673ffffffffffffffffffffffffffffffffffffffff16815260200190815260200160002060009054906101000a900460ff1615151415156110a557600080fd5b600560008473ffffffffffffffffffffffffffffffffffffffff1673ffffffffffffffffffffffffffffffffffffffff1681526020019081526020016000209050600360003373ffffffffffffffffffffffffffffffffffffffff1673ffffffffffffffffffffffffffffffffffffffff1681526020019081526020016000205481600301600082825403925050819055506000600360003373ffffffffffffffffffffffffffffffffffffffff1673ffffffffffffffffffffffffffffffffffffffff168152602001908152602001600020819055506000600460003373ffffffffffffffffffffffffffffffffffffffff1673ffffffffffffffffffffffffffffffffffffffff16815260200190815260200160002060006101000a81548160ff0219169083151502179055506001915050919050565b600b60009054906101000a900473ffffffffffffffffffffffffffffffffffffffff1681565b6000600260003373ffffffffffffffffffffffffffffffffffffffff1673ffffffffffffffffffffffffffffffffffffffff16815260200190815260200160002054821115151561125457600080fd5b81600260003373ffffffffffffffffffffffffffffffffffffffff1673ffffffffffffffffffffffffffffffffffffffff168152602001908152602001600020600082825403925050819055506000809054906101000a900473ffffffffffffffffffffffffffffffffffffffff1673ffffffffffffffffffffffffffffffffffffffff1663a9059cbb33846000604051602001526040518363ffffffff167c0100000000000000000000000000000000000000000000000000000000028152600401808373ffffffffffffffffffffffffffffffffffffffff1673ffffffffffffffffffffffffffffffffffffffff16815260200182815260200192505050602060405180830381600087803b151561136d57600080fd5b6102c65a03f1151561137e57600080fd5b50505060405180519050503373ffffffffffffffffffffffffffffffffffffffff167fb1c90ce88682afb6fb54564abd065e17c4728f8cb472ff17ef458143f3f77971836040518082815260200191505060405180910390a260019050919050565b600c5481565b6000806000600260003373ffffffffffffffffffffffffffffffffffffffff1673ffffffffffffffffffffffffffffffffffffffff1681526020019081526020016000205411151561143757600080fd5b60001515600460003373ffffffffffffffffffffffffffffffffffffffff1673ffffffffffffffffffffffffffffffffffffffff16815260200190815260200160002060009054906101000a900460ff16151514151561149657600080fd5b600560008473ffffffffffffffffffffffffffffffffffffffff1673ffffffffffffffffffffffffffffffffffffffff1681526020019081526020016000209050600260003373ffffffffffffffffffffffffffffffffffffffff1673ffffffffffffffffffffffffffffffffffffffff16815260200190815260200160002054600360003373ffffffffffffffffffffffffffffffffffffffff1673ffffffffffffffffffffffffffffffffffffffff16815260200190815260200160002081905550600260003373ffffffffffffffffffffffffffffffffffffffff1673ffffffffffffffffffffffffffffffffffffffff1681526020019081526020016000205481600301600082825401925050819055506001600460003373ffffffffffffffffffffffffffffffffffffffff1673ffffffffffffffffffffffffffffffffffffffff16815260200190815260200160002060006101000a81548160ff0219169083151502179055506001915050919050565b60056020528060005260406000206000915090508060000160009054906101000a900473ffffffffffffffffffffffffffffffffffffffff16908060000160149054906101000a900460ff169080600101908060020154908060030154905085565b600160009054906101000a900473ffffffffffffffffffffffffffffffffffffffff1681565b6006818154811015156116a457fe5b90600052602060002090016000915054906101000a900473ffffffffffffffffffffffffffffffffffffffff1681565b60085481565b6000806116e5611a6a565b6000809054906101000a900473ffffffffffffffffffffffffffffffffffffffff1673ffffffffffffffffffffffffffffffffffffffff1663dd62ed3e33306000604051602001526040518363ffffffff167c0100000000000000000000000000000000000000000000000000000000028152600401808373ffffffffffffffffffffffffffffffffffffffff1673ffffffffffffffffffffffffffffffffffffffff1681526020018273ffffffffffffffffffffffffffffffffffffffff1673ffffffffffffffffffffffffffffffffffffffff16815260200192505050602060405180830381600087803b15156117dd57600080fd5b6102c65a03f115156117ee57600080fd5b50505060405180519050905082811015151561180957600080fd5b6000809054906101000a900473ffffffffffffffffffffffffffffffffffffffff1673ffffffffffffffffffffffffffffffffffffffff166323b872dd3330866000604051602001526040518463ffffffff167c0100000000000000000000000000000000000000000000000000000000028152600401808473ffffffffffffffffffffffffffffffffffffffff1673ffffffffffffffffffffffffffffffffffffffff1681526020018373ffffffffffffffffffffffffffffffffffffffff1673ffffffffffffffffffffffffffffffffffffffff1681526020018281526020019350505050602060405180830381600087803b151561190957600080fd5b6102c65a03f1151561191a57600080fd5b505050604051805190505082600260003373ffffffffffffffffffffffffffffffffffffffff1673ffffffffffffffffffffffffffffffffffffffff168152602001908152602001600020600082825401925050819055503373ffffffffffffffffffffffffffffffffffffffff167f9e71bc8eea02a63969f509818f2dafb9254532904319f9dbda79b67bd34a5f3d846040518082815260200191505060405180910390a26001915050919050565b60095481565b600a5481565b6119de611e82565b6007805480602002602001604051908101604052809291908181526020018280548015611a6057602002820191906000526020600020905b8160009054906101000a900473ffffffffffffffffffffffffffffffffffffffff1673ffffffffffffffffffffffffffffffffffffffff1681526020019060010190808311611a16575b5050505050905090565b611a72611c61565b1515611a7d57600080fd5b611a85611c6e565b15611a8f57600080fd5b565b600080600080611a9f611c61565b1515611aaa57600080fd5b3373ffffffffffffffffffffffffffffffffffffffff16600160009054906101000a900473ffffffffffffffffffffffffffffffffffffffff1673ffffffffffffffffffffffffffffffffffffffff16141515611b0657600080fd5b6007805490509350600092505b838360ff161015611c165760078360ff16815481101515611b3057fe5b906000526020600020900160009054906101000a900473ffffffffffffffffffffffffffffffffffffffff169150600560008373ffffffffffffffffffffffffffffffffffffffff1673ffffffffffffffffffffffffffffffffffffffff1681526020019081526020016000209050600a5481600301541115611c0b576000600a819055508060030154600a6000828254019250508190555081600b60006101000a81548173ffffffffffffffffffffffffffffffffffffffff021916908373ffffffffffffffffffffffffffffffffffffffff1602179055505b600183019250611b13565b611c1e611c7a565b50505050565b60026020528060005260406000206000915090505481565b6000809054906101000a900473ffffffffffffffffffffffffffffffffffffffff1681565b6000600c54431015905090565b6000600d544311905090565b6000809054906101000a900473ffffffffffffffffffffffffffffffffffffffff1673ffffffffffffffffffffffffffffffffffffffff1663a9059cbb600b60009054906101000a900473ffffffffffffffffffffffffffffffffffffffff166008546000604051602001526040518363ffffffff167c0100000000000000000000000000000000000000000000000000000000028152600401808373ffffffffffffffffffffffffffffffffffffffff1673ffffffffffffffffffffffffffffffffffffffff16815260200182815260200192505050602060405180830381600087803b1515611d6a57600080fd5b6102c65a03f11515611d7b57600080fd5b5050506040518051905050565b60a060405190810160405280600073ffffffffffffffffffffffffffffffffffffffff168152602001600015158152602001611dc2611e96565b815260200160008152602001600081525090565b828054600181600116156101000203166002900490600052602060002090601f016020900481019282601f10611e1757805160ff1916838001178555611e45565b82800160010185558215611e45579182015b82811115611e44578251825591602001919060010190611e29565b5b509050611e529190611eaa565b5090565b815481835581811511611e7d57818360005260206000209182019101611e7c9190611eaa565b5b505050565b602060405190810160405280600081525090565b602060405190810160405280600081525090565b611ecc91905b80821115611ec8576000816000905550600101611eb0565b5090565b905600a165627a7a7230582092d2e333e7c7736722da63b630a1fa9e2825dabac3791a7649aa6c19a0555de40029",
  "source": "pragma solidity ^0.4.11;\r\n\r\n// TokenInterface allows DevContest contract to call approve function from erc20 tokens\r\ncontract TokenInterface {\r\n  function totalSupply() constant returns (uint256 totalSupply) {}\r\n  function balanceOf(address _owner) constant returns (uint256 balance) {}\r\n  function transfer(address _recipient, uint256 _value) returns (bool success) {}\r\n  function transferFrom(address _from, address _recipient, uint256 _value) returns (bool success) {}\r\n  function approve(address _spender, uint256 _value) returns (bool success) {}\r\n  function allowance(address _owner, address _spender) constant returns (uint256 remaining) {}\r\n}\r\n\r\ncontract DevContest {\r\n\r\n  /// @title DevContest - Allows any existing ERC20 token contract to facilitate a contest with submissions and voting by staking tokens into the contract.\r\n  /// @author Michael O'Rourke - <michael@pkt.network>\r\n\r\n\r\n  // Submissions must first get approved by contract owner to be voted on.\r\n  struct Submission {\r\n    address submissionOwner;\r\n    bool isApproved;\r\n    string url;\r\n    uint256 id;\r\n    uint256 votes;\r\n\r\n  }\r\n\r\n  /*\r\n  * State variables\r\n  */\r\n\r\n  // Interface for interacting with an ERC20\r\n  TokenInterface public token;\r\n\r\n  address public owner;\r\n\r\n  // Mappings of voter information\r\n  mapping (address => uint256) public stakedAmount;\r\n  mapping (address => uint256) public voterCount;\r\n  mapping (address => bool) public hasVoted;\r\n\r\n  // Contract owner must manually screen and approve submissions\r\n  mapping (address => Submission) public submissions;\r\n  address[] public unapprovedSubmissions;\r\n  address[] public approvedSubmissions;\r\n\r\n  // Prize for winner\r\n  uint256 public bounty;\r\n\r\n  // Global keeping track of submissions\r\n  uint256 public id;\r\n\r\n  // Globals for deciding winner\r\n  uint256 public highestVote;\r\n  address public winningAddress;\r\n\r\n  // Blocktimes for contest start\r\n  uint256 public startBlock;\r\n  uint256 public endBlock;\r\n\r\n  event Staked(address indexed _from, uint256 _value);\r\n  event StakeReleased(address indexed _from, uint256 _value);\r\n  event SubmissionRegistered(address indexed owner);\r\n\r\n\r\n  function DevContest(address _tokenAddress, uint256 _startBlock, uint256 _endBlock) {\r\n      owner = msg.sender;\r\n      token = TokenInterface(_tokenAddress);\r\n      startBlock = _startBlock;\r\n      endBlock = _endBlock;\r\n  }\r\n\r\n  /*\r\n  * Staking functions\r\n  */\r\n\r\n  /// @dev Stakes ERC20 compatible token into contract. Must call 'approve' on current token contract first.\r\n  /// @param _amount Desired amount to stake in contract\r\n  /// @return Success of stake\r\n  function stake(uint256 _amount) returns (bool success) {\r\n\r\n    checkContestStatus();\r\n    // get contract's allowance\r\n    uint256 allowance = token.allowance(msg.sender, this);\r\n    // do not continue if allowance is less than amount sent\r\n    require(allowance >= _amount);\r\n    token.transferFrom(msg.sender, this, _amount);\r\n    stakedAmount[msg.sender] += _amount;\r\n    Staked(msg.sender, _amount);\r\n\r\n    return true;\r\n  }\r\n\r\n  /// @dev Releases stake of ERC20 compatible token back to user by calling `transfer`.\r\n  /// @param _amount Desired amount to transfer from contract\r\n  /// @return Success of release\r\n  function releaseStake(uint256 _amount) returns (bool success) {\r\n\r\n    require(_amount <= stakedAmount[msg.sender]);\r\n    stakedAmount[msg.sender] -= _amount;\r\n    token.transfer(msg.sender, _amount);\r\n    StakeReleased(msg.sender, _amount);\r\n    return true;\r\n  }\r\n\r\n  /*\r\n  * Submission functions\r\n  */\r\n\r\n  /// @dev Registers new submission that contract owner can approve.\r\n  /// @param _url Link to project submission\r\n  /// @return Success of submission register\r\n  function registerSubmission (string _url) returns (bool success){\r\n\r\n    checkContestStatus();\r\n\r\n    Submission memory newSub;\r\n    newSub.submissionOwner = msg.sender;\r\n    newSub.isApproved = false;\r\n    newSub.url = _url;\r\n    newSub.id = id;\r\n    id += 1;\r\n\r\n    submissions[msg.sender] = newSub;\r\n    unapprovedSubmissions.push(msg.sender);\r\n    return true;\r\n  }\r\n\r\n  /// @dev Contract owner approves submissions to be shown\r\n  /// @param _subAddress of owner of submission to be approved\r\n  /// @param _index of owner address in approvedSubmissions\r\n  /// @return Success of approval\r\n  function approveSubmission (address _subAddress, uint256 _index) returns (bool success) {\r\n\r\n    require(owner == msg.sender);\r\n    require(unapprovedSubmissions.length > _index);\r\n\r\n    Submission approvedSub = submissions[_subAddress];\r\n    approvedSub.isApproved = true;\r\n    approvedSubmissions.push(_subAddress);\r\n    delete unapprovedSubmissions[_index];\r\n    return true;\r\n  }\r\n\r\n  /*\r\n  * Voting functions\r\n  */\r\n\r\n  /// @dev vote for favorite submissions\r\n  /// @param _favoriteSubmission of approved submissions participant wishes to vote for\r\n  /// @return Success of vote\r\n  function vote(address _favoriteSubmission) returns (bool success) {\r\n\r\n    require(stakedAmount[msg.sender] > 0);\r\n    require(hasVoted[msg.sender] == false);\r\n\r\n    Submission approvedSub = submissions[_favoriteSubmission];\r\n\r\n    voterCount[msg.sender] = stakedAmount[msg.sender];\r\n    approvedSub.votes += stakedAmount[msg.sender];\r\n    hasVoted[msg.sender] = true;\r\n    return true;\r\n  }\r\n\r\n  /// @dev remove vote from submission\r\n  /// @param _unfortunateSubmission address of approved submission participant wishes to remove vote for\r\n  /// @return success of vote removal\r\n  function removeVote(address _unfortunateSubmission) returns (bool success) {\r\n    require(stakedAmount[msg.sender] > 0);\r\n    require(hasVoted[msg.sender] == true);\r\n\r\n    Submission approvedSub = submissions[_unfortunateSubmission];\r\n\r\n    approvedSub.votes -= voterCount[msg.sender];\r\n    voterCount[msg.sender] = 0;\r\n    hasVoted[msg.sender] = false;\r\n    return true;\r\n  }\r\n\r\n  /*\r\n  * Owner functions\r\n  */\r\n\r\n  /// @dev Add bounty for contest winner. Contract owner must approve amount to be transferred\r\n  /// @param _amount of bounty to be added\r\n  function addBounty(uint256 _amount) {\r\n    require(owner == msg.sender);\r\n\r\n    uint256 allowance = token.allowance(msg.sender, this);\r\n    require(allowance >= _amount);\r\n\r\n    bounty += _amount;\r\n    token.transferFrom(msg.sender, this, _amount);\r\n  }\r\n\r\n  function completeContest() {\r\n    require(hasContestStarted());\r\n    require(owner == msg.sender);\r\n\r\n    uint256 subCount = approvedSubmissions.length;\r\n\r\n    for (uint8 i= 0; i<subCount; i+=1 ) {\r\n      address subAddress = approvedSubmissions[i];\r\n      Submission sub = submissions[subAddress];\r\n\r\n      //need to deal with tie case\r\n      if(sub.votes > highestVote) {\r\n        highestVote = 0;\r\n        highestVote += sub.votes;\r\n        winningAddress = subAddress;\r\n      }\r\n    }\r\n    payout();\r\n  }\r\n\r\n  function payout() internal {\r\n    token.transfer(winningAddress, bounty);\r\n  }\r\n\r\n  /*\r\n  * Helper functions\r\n  */\r\n\r\n  function hasContestStarted() private constant returns (bool) {\r\n    // Check if global block.number is greater than or equal to start block and return result\r\n    return block.number >= startBlock;\r\n  }\r\n\r\n  function hasContestEnded() private constant returns (bool) {\r\n    // Return only greater than result because crowdsale goes until the endblock\r\n    return block.number > endBlock;\r\n  }\r\n\r\n  function checkContestStatus() {\r\n    if (!hasContestStarted()) revert();\r\n    if (hasContestEnded()) revert();\r\n  }\r\n\r\n  function getUnapprovedSubmissionAddresses() constant returns (address[] submissions) {\r\n    return unapprovedSubmissions;\r\n  }\r\n\r\n  function getApprovedSubmissionAddresses() constant returns (address[] submissions) {\r\n    return approvedSubmissions;\r\n  }\r\n}\r\n\r\n\r\n\r\n// TESTRPC SHORTCUTS\r\n/*\r\nDevContest.deployed().then(function(i) {voting = i})\r\nMPToken.deployed().then(function(i) {token = i})\r\ntoken.approve(voting.address, 100)\r\nvoting.stake(10)\r\nsender = web3.eth.accounts[0]\r\nvoting.registerSubmission(\"http://woot.com\", \"Woot project\")\r\nvoting.getUnapprovedSubmissionAddresses()\r\nsub = addr\r\nvoting.approveSubmission(sub, 0)\r\nvoting.vote(sub)\r\n\r\n*/\r\n",
  "sourcePath": "C:\\Users\\cdavi\\Desktop\\Projects\\DevContest\\contracts\\DevContest.sol",
  "compiler": {
    "name": "solc",
    "version": "0.4.18+commit.9cf6e910.Emscripten.clang"
  },
  "schemaVersion": "1.0.1",
  "updatedAt": "2017-12-21T00:57:19.369Z"
}