{
  "contractName": "DevContest",
  "abi": [
    {
      "constant": true,
      "inputs": [],
      "name": "endBlock",
      "outputs": [
        {
          "name": "",
          "type": "uint256"
        }
      ],
      "payable": false,
      "type": "function",
      "stateMutability": "view"
    },
    {
      "constant": true,
      "inputs": [
        {
          "name": "",
          "type": "address"
        }
      ],
      "name": "hasVoted",
      "outputs": [
        {
          "name": "",
          "type": "bool"
        }
      ],
      "payable": false,
      "type": "function",
      "stateMutability": "view"
    },
    {
      "constant": true,
      "inputs": [
        {
          "name": "",
          "type": "address"
        }
      ],
      "name": "voterCount",
      "outputs": [
        {
          "name": "",
          "type": "uint256"
        }
      ],
      "payable": false,
      "type": "function",
      "stateMutability": "view"
    },
    {
      "constant": false,
      "inputs": [
        {
          "name": "_subAddress",
          "type": "address"
        },
        {
          "name": "_index",
          "type": "uint256"
        }
      ],
      "name": "approveSubmission",
      "outputs": [
        {
          "name": "success",
          "type": "bool"
        }
      ],
      "payable": false,
      "type": "function",
      "stateMutability": "nonpayable"
    },
    {
      "constant": true,
      "inputs": [],
      "name": "getUnapprovedSubmissionAddresses",
      "outputs": [
        {
          "name": "submissions",
          "type": "address[]"
        }
      ],
      "payable": false,
      "type": "function",
      "stateMutability": "view"
    },
    {
      "constant": true,
      "inputs": [
        {
          "name": "",
          "type": "uint256"
        }
      ],
      "name": "approvedSubmissions",
      "outputs": [
        {
          "name": "",
          "type": "address"
        }
      ],
      "payable": false,
      "type": "function",
      "stateMutability": "view"
    },
    {
      "constant": true,
      "inputs": [
        {
          "name": "",
          "type": "address"
        }
      ],
      "name": "hasSubmitted",
      "outputs": [
        {
          "name": "",
          "type": "bool"
        }
      ],
      "payable": false,
      "type": "function",
      "stateMutability": "view"
    },
    {
      "constant": false,
      "inputs": [
        {
          "name": "_amount",
          "type": "uint256"
        }
      ],
      "name": "addBounty",
      "outputs": [],
      "payable": false,
      "type": "function",
      "stateMutability": "nonpayable"
    },
    {
      "constant": false,
      "inputs": [
        {
          "name": "_unfortunateSubmission",
          "type": "address"
        }
      ],
      "name": "removeVote",
      "outputs": [
        {
          "name": "success",
          "type": "bool"
        }
      ],
      "payable": false,
      "type": "function",
      "stateMutability": "nonpayable"
    },
    {
      "constant": true,
      "inputs": [],
      "name": "winningAddress",
      "outputs": [
        {
          "name": "",
          "type": "address"
        }
      ],
      "payable": false,
      "type": "function",
      "stateMutability": "view"
    },
    {
      "constant": false,
      "inputs": [
        {
          "name": "_amount",
          "type": "uint256"
        }
      ],
      "name": "releaseStake",
      "outputs": [
        {
          "name": "success",
          "type": "bool"
        }
      ],
      "payable": false,
      "type": "function",
      "stateMutability": "nonpayable"
    },
    {
      "constant": true,
      "inputs": [],
      "name": "startBlock",
      "outputs": [
        {
          "name": "",
          "type": "uint256"
        }
      ],
      "payable": false,
      "type": "function",
      "stateMutability": "view"
    },
    {
      "constant": false,
      "inputs": [
        {
          "name": "_favoriteSubmission",
          "type": "address"
        }
      ],
      "name": "vote",
      "outputs": [
        {
          "name": "success",
          "type": "bool"
        }
      ],
      "payable": false,
      "type": "function",
      "stateMutability": "nonpayable"
    },
    {
      "constant": false,
      "inputs": [
        {
          "name": "_name",
          "type": "bytes32"
        },
        {
          "name": "_desc",
          "type": "bytes32"
        },
        {
          "name": "_url",
          "type": "bytes32"
        }
      ],
      "name": "registerSubmission",
      "outputs": [
        {
          "name": "success",
          "type": "bool"
        }
      ],
      "payable": false,
      "type": "function",
      "stateMutability": "nonpayable"
    },
    {
      "constant": true,
      "inputs": [
        {
          "name": "",
          "type": "address"
        }
      ],
      "name": "submissions",
      "outputs": [
        {
          "name": "isApproved",
          "type": "bool"
        },
        {
          "name": "name",
          "type": "bytes32"
        },
        {
          "name": "desc",
          "type": "bytes32"
        },
        {
          "name": "url",
          "type": "bytes32"
        },
        {
          "name": "id",
          "type": "uint256"
        },
        {
          "name": "votes",
          "type": "uint256"
        }
      ],
      "payable": false,
      "type": "function",
      "stateMutability": "view"
    },
    {
      "constant": true,
      "inputs": [],
      "name": "owner",
      "outputs": [
        {
          "name": "",
          "type": "address"
        }
      ],
      "payable": false,
      "type": "function",
      "stateMutability": "view"
    },
    {
      "constant": true,
      "inputs": [
        {
          "name": "",
          "type": "uint256"
        }
      ],
      "name": "unapprovedSubmissions",
      "outputs": [
        {
          "name": "",
          "type": "address"
        }
      ],
      "payable": false,
      "type": "function",
      "stateMutability": "view"
    },
    {
      "constant": true,
      "inputs": [],
      "name": "bounty",
      "outputs": [
        {
          "name": "",
          "type": "uint256"
        }
      ],
      "payable": false,
      "type": "function",
      "stateMutability": "view"
    },
    {
      "constant": false,
      "inputs": [
        {
          "name": "_amount",
          "type": "uint256"
        }
      ],
      "name": "stake",
      "outputs": [
        {
          "name": "success",
          "type": "bool"
        }
      ],
      "payable": false,
      "type": "function",
      "stateMutability": "nonpayable"
    },
    {
      "constant": true,
      "inputs": [],
      "name": "id",
      "outputs": [
        {
          "name": "",
          "type": "uint256"
        }
      ],
      "payable": false,
      "type": "function",
      "stateMutability": "view"
    },
    {
      "constant": true,
      "inputs": [],
      "name": "highestVote",
      "outputs": [
        {
          "name": "",
          "type": "uint256"
        }
      ],
      "payable": false,
      "type": "function",
      "stateMutability": "view"
    },
    {
      "constant": true,
      "inputs": [],
      "name": "getApprovedSubmissionAddresses",
      "outputs": [
        {
          "name": "submissions",
          "type": "address[]"
        }
      ],
      "payable": false,
      "type": "function",
      "stateMutability": "view"
    },
    {
      "constant": false,
      "inputs": [],
      "name": "checkContestStatus",
      "outputs": [
        {
          "name": "submissions",
          "type": "address[]"
        }
      ],
      "payable": false,
      "type": "function",
      "stateMutability": "nonpayable"
    },
    {
      "constant": false,
      "inputs": [],
      "name": "completeContest",
      "outputs": [],
      "payable": false,
      "type": "function",
      "stateMutability": "nonpayable"
    },
    {
      "constant": true,
      "inputs": [
        {
          "name": "",
          "type": "address"
        }
      ],
      "name": "stakedAmount",
      "outputs": [
        {
          "name": "",
          "type": "uint256"
        }
      ],
      "payable": false,
      "type": "function",
      "stateMutability": "view"
    },
    {
      "constant": true,
      "inputs": [
        {
          "name": "",
          "type": "address"
        }
      ],
      "name": "token",
      "outputs": [
        {
          "name": "",
          "type": "address"
        }
      ],
      "payable": false,
      "type": "function",
      "stateMutability": "view"
    },
    {
      "constant": true,
      "inputs": [
        {
          "name": "_tokenAddress",
          "type": "address"
        },
        {
          "name": "_startBlock",
          "type": "uint256"
        },
        {
          "name": "_endBlock",
          "type": "uint256"
        }
      ],
      "name": "token",
      "outputs": [
        {
          "name": "",
          "type": "address"
        }
      ],
      "payable": false,
      "type": "constructor",
      "stateMutability": "nonpayable"
    },
    {
      "inputs": [
        {
          "name": "_from",
          "type": "address",
          "indexed": true
        },
        {
          "name": "_value",
          "type": "uint256",
          "indexed": false
        },
        {
          "name": "_endBlock",
          "type": "uint256"
        }
      ],
      "payable": false,
      "type": "event",
      "stateMutability": "nonpayable",
      "anonymous": false,
      "name": "Staked"
    },
    {
      "anonymous": false,
      "inputs": [
        {
          "indexed": true,
          "name": "_from",
          "type": "address"
        },
        {
          "indexed": false,
          "name": "_value",
          "type": "uint256"
        }
      ],
      "name": "StakeReleased",
      "type": "event"
    },
    {
      "anonymous": false,
      "inputs": [
        {
          "indexed": true,
          "name": "owner",
          "type": "address"
        },
        {
          "indexed": false,
          "name": "_value",
          "type": "uint256"
        }
      ],
      "name": "SubmissionRegistered",
      "type": "event"
    },
    {
      "anonymous": false,
      "inputs": [
        {
          "indexed": true,
          "name": "owner",
          "type": "address"
        }
      ],
      "name": "SubmissionApproved",
      "type": "event"
    },
    {
      "anonymous": false,
      "inputs": [
        {
          "indexed": true,
          "name": "favoriteSubmission",
          "type": "address"
        },
        {
          "indexed": true,
          "name": "who",
          "type": "address"
        },
        {
          "indexed": false,
          "name": "amount",
          "type": "uint256"
        }
      ],
      "name": "Voted",
      "type": "event"
    },
    {
      "anonymous": false,
      "inputs": [
        {
          "indexed": true,
          "name": "unfortunateSubmission",
          "type": "address"
        },
        {
          "indexed": true,
          "name": "who",
          "type": "address"
        },
        {
          "indexed": false,
          "name": "amount",
          "type": "uint256"
        }
      ],
      "name": "RemovedVote",
      "type": "event"
    },
    {
      "anonymous": false,
      "inputs": [
        {
          "indexed": true,
          "name": "unfortunateSubmission",
          "type": "address"
        },
        {
          "indexed": true,
          "name": "who",
          "type": "address"
        },
        {
          "indexed": false,
          "name": "amount",
          "type": "uint256"
        }
      ],
      "name": "RemovedVote",
      "type": "event"
    }
  ],
  "bytecode": "0x6060604052341561000f57600080fd5b60405160608061221a8339810160405280805190602001909190805190602001909190805190602001909190505033600160006101000a81548173ffffffffffffffffffffffffffffffffffffffff021916908373ffffffffffffffffffffffffffffffffffffffff160217905550826000806101000a81548173ffffffffffffffffffffffffffffffffffffffff021916908373ffffffffffffffffffffffffffffffffffffffff16021790555081600d8190555080600e819055506001600a81905550505050612134806100e66000396000f300606060405260043610610154576000357c0100000000000000000000000000000000000000000000000000000000900463ffffffff168063083c63231461015957806309eef43e146101825780630aeb4645146101d3578063239618b7146102205780632a2dbe281461027a57806334950dcf146102e4578063388044b31461034757806338e43895146103985780633ccc1f53146103bb5780633ea8b3bc1461040c57806345f544851461046157806348cd4cb11461049c5780636dd7d8ea146104c557806388d729fb1461051657806389e14e161461056f5780638da5cb5b146105fb578063910f15fc14610650578063943dfef1146106b3578063a694fc3a146106dc578063af640d0f14610717578063b3a4dc2f14610740578063ce70d17914610769578063de360c9b146107d3578063f8e737ef146107e8578063f9931855146107fd578063fc0c546a1461084a575b600080fd5b341561016457600080fd5b61016c61089f565b6040518082815260200191505060405180910390f35b341561018d57600080fd5b6101b9600480803573ffffffffffffffffffffffffffffffffffffffff169060200190919050506108a5565b604051808215151515815260200191505060405180910390f35b34156101de57600080fd5b61020a600480803573ffffffffffffffffffffffffffffffffffffffff169060200190919050506108c5565b6040518082815260200191505060405180910390f35b341561022b57600080fd5b610260600480803573ffffffffffffffffffffffffffffffffffffffff169060200190919080359060200190919050506108dd565b604051808215151515815260200191505060405180910390f35b341561028557600080fd5b61028d610a95565b6040518080602001828103825283818151815260200191508051906020019060200280838360005b838110156102d05780820151818401526020810190506102b5565b505050509050019250505060405180910390f35b34156102ef57600080fd5b6103056004808035906020019091905050610b29565b604051808273ffffffffffffffffffffffffffffffffffffffff1673ffffffffffffffffffffffffffffffffffffffff16815260200191505060405180910390f35b341561035257600080fd5b61037e600480803573ffffffffffffffffffffffffffffffffffffffff16906020019091905050610b68565b604051808215151515815260200191505060405180910390f35b34156103a357600080fd5b6103b96004808035906020019091905050610b88565b005b34156103c657600080fd5b6103f2600480803573ffffffffffffffffffffffffffffffffffffffff16906020019091905050610e45565b604051808215151515815260200191505060405180910390f35b341561041757600080fd5b61041f6110df565b604051808273ffffffffffffffffffffffffffffffffffffffff1673ffffffffffffffffffffffffffffffffffffffff16815260200191505060405180910390f35b341561046c57600080fd5b6104826004808035906020019091905050611105565b604051808215151515815260200191505060405180910390f35b34156104a757600080fd5b6104af611329565b6040518082815260200191505060405180910390f35b34156104d057600080fd5b6104fc600480803573ffffffffffffffffffffffffffffffffffffffff1690602001909190505061132f565b604051808215151515815260200191505060405180910390f35b341561052157600080fd5b6105556004808035600019169060200190919080356000191690602001909190803560001916906020019091905050611607565b604051808215151515815260200191505060405180910390f35b341561057a57600080fd5b6105a6600480803573ffffffffffffffffffffffffffffffffffffffff16906020019091905050611893565b6040518087151515158152602001866000191660001916815260200185600019166000191681526020018460001916600019168152602001838152602001828152602001965050505050505060405180910390f35b341561060657600080fd5b61060e6118dc565b604051808273ffffffffffffffffffffffffffffffffffffffff1673ffffffffffffffffffffffffffffffffffffffff16815260200191505060405180910390f35b341561065b57600080fd5b6106716004808035906020019091905050611902565b604051808273ffffffffffffffffffffffffffffffffffffffff1673ffffffffffffffffffffffffffffffffffffffff16815260200191505060405180910390f35b34156106be57600080fd5b6106c6611941565b6040518082815260200191505060405180910390f35b34156106e757600080fd5b6106fd6004808035906020019091905050611947565b604051808215151515815260200191505060405180910390f35b341561072257600080fd5b61072a611c7f565b6040518082815260200191505060405180910390f35b341561074b57600080fd5b610753611c85565b6040518082815260200191505060405180910390f35b341561077457600080fd5b61077c611c8b565b6040518080602001828103825283818151815260200191508051906020019060200280838360005b838110156107bf5780820151818401526020810190506107a4565b505050509050019250505060405180910390f35b34156107de57600080fd5b6107e6611d1f565b005b34156107f357600080fd5b6107fb611d46565b005b341561080857600080fd5b610834600480803573ffffffffffffffffffffffffffffffffffffffff16906020019091905050611ec6565b6040518082815260200191505060405180910390f35b341561085557600080fd5b61085d611ede565b604051808273ffffffffffffffffffffffffffffffffffffffff1673ffffffffffffffffffffffffffffffffffffffff16815260200191505060405180910390f35b600e5481565b60046020528060005260406000206000915054906101000a900460ff1681565b60036020528060005260406000206000915090505481565b6000803373ffffffffffffffffffffffffffffffffffffffff16600160009054906101000a900473ffffffffffffffffffffffffffffffffffffffff1673ffffffffffffffffffffffffffffffffffffffff1614151561093c57600080fd5b600660008573ffffffffffffffffffffffffffffffffffffffff1673ffffffffffffffffffffffffffffffffffffffff1681526020019081526020016000209050600015158160000160009054906101000a900460ff1615151415156109a157600080fd5b8281600401541415156109b357600080fd5b60008160040154141515156109c757600080fd5b60018160000160006101000a81548160ff021916908315150217905550600880548060010182816109f89190612061565b9160005260206000209001600086909190916101000a81548173ffffffffffffffffffffffffffffffffffffffff021916908373ffffffffffffffffffffffffffffffffffffffff160217905550508373ffffffffffffffffffffffffffffffffffffffff167f980ea6acc037550d51bf720e04dd2f6b86c6144e4402588fb40ad2ae36d53ef260405160405180910390a2600191505092915050565b610a9d61208d565b6007805480602002602001604051908101604052809291908181526020018280548015610b1f57602002820191906000526020600020905b8160009054906101000a900473ffffffffffffffffffffffffffffffffffffffff1673ffffffffffffffffffffffffffffffffffffffff1681526020019060010190808311610ad5575b5050505050905090565b600881815481101515610b3857fe5b90600052602060002090016000915054906101000a900473ffffffffffffffffffffffffffffffffffffffff1681565b60056020528060005260406000206000915054906101000a900460ff1681565b60003373ffffffffffffffffffffffffffffffffffffffff16600160009054906101000a900473ffffffffffffffffffffffffffffffffffffffff1673ffffffffffffffffffffffffffffffffffffffff16141515610be657600080fd5b6000809054906101000a900473ffffffffffffffffffffffffffffffffffffffff1673ffffffffffffffffffffffffffffffffffffffff1663dd62ed3e33306000604051602001526040518363ffffffff167c0100000000000000000000000000000000000000000000000000000000028152600401808373ffffffffffffffffffffffffffffffffffffffff1673ffffffffffffffffffffffffffffffffffffffff1681526020018273ffffffffffffffffffffffffffffffffffffffff1673ffffffffffffffffffffffffffffffffffffffff16815260200192505050602060405180830381600087803b1515610cde57600080fd5b6102c65a03f11515610cef57600080fd5b505050604051805190509050818110151515610d0a57600080fd5b610d1f82600954611f0390919063ffffffff16565b6009819055506000809054906101000a900473ffffffffffffffffffffffffffffffffffffffff1673ffffffffffffffffffffffffffffffffffffffff166323b872dd3330856000604051602001526040518463ffffffff167c0100000000000000000000000000000000000000000000000000000000028152600401808473ffffffffffffffffffffffffffffffffffffffff1673ffffffffffffffffffffffffffffffffffffffff1681526020018373ffffffffffffffffffffffffffffffffffffffff1673ffffffffffffffffffffffffffffffffffffffff1681526020018281526020019350505050602060405180830381600087803b1515610e2557600080fd5b6102c65a03f11515610e3657600080fd5b50505060405180519050505050565b6000806000600260003373ffffffffffffffffffffffffffffffffffffffff1673ffffffffffffffffffffffffffffffffffffffff16815260200190815260200160002054111515610e9657600080fd5b60011515600460003373ffffffffffffffffffffffffffffffffffffffff1673ffffffffffffffffffffffffffffffffffffffff16815260200190815260200160002060009054906101000a900460ff161515141515610ef557600080fd5b600660008473ffffffffffffffffffffffffffffffffffffffff1673ffffffffffffffffffffffffffffffffffffffff1681526020019081526020016000209050610f8c600360003373ffffffffffffffffffffffffffffffffffffffff1673ffffffffffffffffffffffffffffffffffffffff168152602001908152602001600020548260050154611f2190919063ffffffff16565b81600501819055506000600360003373ffffffffffffffffffffffffffffffffffffffff1673ffffffffffffffffffffffffffffffffffffffff168152602001908152602001600020819055506000600460003373ffffffffffffffffffffffffffffffffffffffff1673ffffffffffffffffffffffffffffffffffffffff16815260200190815260200160002060006101000a81548160ff0219169083151502179055503373ffffffffffffffffffffffffffffffffffffffff168373ffffffffffffffffffffffffffffffffffffffff167fb3606afa294668af0929a458fa147904bba4f5b9658a2591949a8ae609d2451a600260003373ffffffffffffffffffffffffffffffffffffffff1673ffffffffffffffffffffffffffffffffffffffff168152602001908152602001600020546040518082815260200191505060405180910390a36001915050919050565b600c60009054906101000a900473ffffffffffffffffffffffffffffffffffffffff1681565b6000600260003373ffffffffffffffffffffffffffffffffffffffff1673ffffffffffffffffffffffffffffffffffffffff16815260200190815260200160002054821115151561115557600080fd5b6111a782600260003373ffffffffffffffffffffffffffffffffffffffff1673ffffffffffffffffffffffffffffffffffffffff16815260200190815260200160002054611f2190919063ffffffff16565b600260003373ffffffffffffffffffffffffffffffffffffffff1673ffffffffffffffffffffffffffffffffffffffff168152602001908152602001600020819055506000809054906101000a900473ffffffffffffffffffffffffffffffffffffffff1673ffffffffffffffffffffffffffffffffffffffff1663a9059cbb33846000604051602001526040518363ffffffff167c0100000000000000000000000000000000000000000000000000000000028152600401808373ffffffffffffffffffffffffffffffffffffffff1673ffffffffffffffffffffffffffffffffffffffff16815260200182815260200192505050602060405180830381600087803b15156112b657600080fd5b6102c65a03f115156112c757600080fd5b50505060405180519050503373ffffffffffffffffffffffffffffffffffffffff167fb1c90ce88682afb6fb54564abd065e17c4728f8cb472ff17ef458143f3f77971836040518082815260200191505060405180910390a260019050919050565b600d5481565b6000806000600260003373ffffffffffffffffffffffffffffffffffffffff1673ffffffffffffffffffffffffffffffffffffffff1681526020019081526020016000205411151561138057600080fd5b60001515600460003373ffffffffffffffffffffffffffffffffffffffff1673ffffffffffffffffffffffffffffffffffffffff16815260200190815260200160002060009054906101000a900460ff1615151415156113df57600080fd5b600660008473ffffffffffffffffffffffffffffffffffffffff1673ffffffffffffffffffffffffffffffffffffffff1681526020019081526020016000209050600260003373ffffffffffffffffffffffffffffffffffffffff1673ffffffffffffffffffffffffffffffffffffffff16815260200190815260200160002054600360003373ffffffffffffffffffffffffffffffffffffffff1673ffffffffffffffffffffffffffffffffffffffff168152602001908152602001600020819055506114f9600260003373ffffffffffffffffffffffffffffffffffffffff1673ffffffffffffffffffffffffffffffffffffffff168152602001908152602001600020548260050154611f0390919063ffffffff16565b81600501819055506001600460003373ffffffffffffffffffffffffffffffffffffffff1673ffffffffffffffffffffffffffffffffffffffff16815260200190815260200160002060006101000a81548160ff0219169083151502179055503373ffffffffffffffffffffffffffffffffffffffff168373ffffffffffffffffffffffffffffffffffffffff167f174ba19ba3c8bb5c679c87e51db79fff7c3f04bb84c1fd55b7dacb470b674aa6600260003373ffffffffffffffffffffffffffffffffffffffff1673ffffffffffffffffffffffffffffffffffffffff168152602001908152602001600020546040518082815260200191505060405180910390a36001915050919050565b60006116116120a1565b611619611d1f565b60001515600560003373ffffffffffffffffffffffffffffffffffffffff1673ffffffffffffffffffffffffffffffffffffffff16815260200190815260200160002060009054906101000a900460ff16151514151561167857600080fd5b6000816000019015159081151581525050848160200190600019169081600019168152505083816040019060001916908160001916815250508281606001906000191690816000191681525050600a548160800181815250506001600a6000828254019250508190555080600660003373ffffffffffffffffffffffffffffffffffffffff1673ffffffffffffffffffffffffffffffffffffffff16815260200190815260200160002060008201518160000160006101000a81548160ff0219169083151502179055506020820151816001019060001916905560408201518160020190600019169055606082015181600301906000191690556080820151816004015560a082015181600501559050506001600560003373ffffffffffffffffffffffffffffffffffffffff1673ffffffffffffffffffffffffffffffffffffffff16815260200190815260200160002060006101000a81548160ff021916908315150217905550600780548060010182816117f59190612061565b9160005260206000209001600033909190916101000a81548173ffffffffffffffffffffffffffffffffffffffff021916908373ffffffffffffffffffffffffffffffffffffffff160217905550503373ffffffffffffffffffffffffffffffffffffffff167fc6ec98d08181f4d043822050419ac67dea2e825a879df63f34a66c5079304cb260405160405180910390a260019150509392505050565b60066020528060005260406000206000915090508060000160009054906101000a900460ff16908060010154908060020154908060030154908060040154908060050154905086565b600160009054906101000a900473ffffffffffffffffffffffffffffffffffffffff1681565b60078181548110151561191157fe5b90600052602060002090016000915054906101000a900473ffffffffffffffffffffffffffffffffffffffff1681565b60095481565b600080611952611d1f565b6000809054906101000a900473ffffffffffffffffffffffffffffffffffffffff1673ffffffffffffffffffffffffffffffffffffffff1663dd62ed3e33306000604051602001526040518363ffffffff167c0100000000000000000000000000000000000000000000000000000000028152600401808373ffffffffffffffffffffffffffffffffffffffff1673ffffffffffffffffffffffffffffffffffffffff1681526020018273ffffffffffffffffffffffffffffffffffffffff1673ffffffffffffffffffffffffffffffffffffffff16815260200192505050602060405180830381600087803b1515611a4a57600080fd5b6102c65a03f11515611a5b57600080fd5b505050604051805190509050828110151515611a7657600080fd5b6000809054906101000a900473ffffffffffffffffffffffffffffffffffffffff1673ffffffffffffffffffffffffffffffffffffffff166323b872dd3330866000604051602001526040518463ffffffff167c0100000000000000000000000000000000000000000000000000000000028152600401808473ffffffffffffffffffffffffffffffffffffffff1673ffffffffffffffffffffffffffffffffffffffff1681526020018373ffffffffffffffffffffffffffffffffffffffff1673ffffffffffffffffffffffffffffffffffffffff1681526020018281526020019350505050602060405180830381600087803b1515611b7657600080fd5b6102c65a03f11515611b8757600080fd5b5050506040518051905050611be483600260003373ffffffffffffffffffffffffffffffffffffffff1673ffffffffffffffffffffffffffffffffffffffff16815260200190815260200160002054611f0390919063ffffffff16565b600260003373ffffffffffffffffffffffffffffffffffffffff1673ffffffffffffffffffffffffffffffffffffffff168152602001908152602001600020819055503373ffffffffffffffffffffffffffffffffffffffff167f9e71bc8eea02a63969f509818f2dafb9254532904319f9dbda79b67bd34a5f3d846040518082815260200191505060405180910390a26001915050919050565b600a5481565b600b5481565b611c9361208d565b6008805480602002602001604051908101604052809291908181526020018280548015611d1557602002820191906000526020600020905b8160009054906101000a900473ffffffffffffffffffffffffffffffffffffffff1673ffffffffffffffffffffffffffffffffffffffff1681526020019060010190808311611ccb575b5050505050905090565b611d27611f3a565b1515611d3257600080fd5b611d3a611f47565b15611d4457600080fd5b565b6000806000803373ffffffffffffffffffffffffffffffffffffffff16600160009054906101000a900473ffffffffffffffffffffffffffffffffffffffff1673ffffffffffffffffffffffffffffffffffffffff16141515611da857600080fd5b6008805490509350600092505b838360ff161015611eb85760088360ff16815481101515611dd257fe5b906000526020600020900160009054906101000a900473ffffffffffffffffffffffffffffffffffffffff169150600660008373ffffffffffffffffffffffffffffffffffffffff1673ffffffffffffffffffffffffffffffffffffffff1681526020019081526020016000209050600b5481600501541115611ead576000600b819055508060050154600b6000828254019250508190555081600c60006101000a81548173ffffffffffffffffffffffffffffffffffffffff021916908373ffffffffffffffffffffffffffffffffffffffff1602179055505b600183019250611db5565b611ec0611f53565b50505050565b60026020528060005260406000206000915090505481565b6000809054906101000a900473ffffffffffffffffffffffffffffffffffffffff1681565b6000808284019050838110151515611f1757fe5b8091505092915050565b6000828211151515611f2f57fe5b818303905092915050565b6000600d54431015905090565b6000600e544311905090565b6000809054906101000a900473ffffffffffffffffffffffffffffffffffffffff1673ffffffffffffffffffffffffffffffffffffffff1663a9059cbb600c60009054906101000a900473ffffffffffffffffffffffffffffffffffffffff166009546000604051602001526040518363ffffffff167c0100000000000000000000000000000000000000000000000000000000028152600401808373ffffffffffffffffffffffffffffffffffffffff1673ffffffffffffffffffffffffffffffffffffffff16815260200182815260200192505050602060405180830381600087803b151561204357600080fd5b6102c65a03f1151561205457600080fd5b5050506040518051905050565b8154818355818115116120885781836000526020600020918201910161208791906120e3565b5b505050565b602060405190810160405280600081525090565b60c06040519081016040528060001515815260200160008019168152602001600080191681526020016000801916815260200160008152602001600081525090565b61210591905b808211156121015760008160009055506001016120e9565b5090565b905600a165627a7a72305820a6c4c3634c9cdc02e05cb6f773e8f12998e1dfd52ebe9c617be453383866bf0c0029",
  "source": "pragma solidity ^0.4.11;\r\n\r\nimport \"./SafeMath.sol\";\r\n\r\n// TokenInterface allows DevContest contract to call approve function from erc20 tokens\r\ncontract TokenInterface {\r\n  function totalSupply() constant returns (uint256 totalSupply) {}\r\n  function balanceOf(address _owner) constant returns (uint256 balance) {}\r\n  function transfer(address _recipient, uint256 _value) returns (bool success) {}\r\n  function transferFrom(address _from, address _recipient, uint256 _value) returns (bool success) {}\r\n  function approve(address _spender, uint256 _value) returns (bool success) {}\r\n  function allowance(address _owner, address _spender) constant returns (uint256 remaining) {}\r\n}\r\n\r\ncontract DevContest {\r\n\r\n  /// @title DevContest - Allows any existing ERC20 token contract to facilitate a contest with submissions and voting by staking tokens into the contract.\r\n  /// @author Michael O'Rourke - <michael@pkt.network>\r\n\r\n  using SafeMath for uint256;\r\n\r\n  // Submissions must first get approved by contract owner to be voted on.\r\n  struct Submission {\r\n    bool isApproved;\r\n    bytes32 name;\r\n    bytes32 desc;\r\n    bytes32 url;\r\n    uint256 id;\r\n    uint256 votes;\r\n  }\r\n\r\n  /*\r\n  * State variables\r\n  */\r\n\r\n  // Interface for interacting with an ERC20\r\n  TokenInterface public token;\r\n\r\n  address public owner;\r\n\r\n  // Mappings of voter information\r\n  mapping (address => uint256) public stakedAmount;\r\n  mapping (address => uint256) public voterCount;\r\n  mapping (address => bool) public hasVoted;\r\n\r\n\r\n  // Mapping of whether address has submitted\r\n  mapping (address => bool) public hasSubmitted;\r\n  // Contract owner must manually screen and approve submissions\r\n  mapping (address => Submission) public submissions;\r\n  address[] public unapprovedSubmissions;\r\n  address[] public approvedSubmissions;\r\n\r\n  // Prize for winner\r\n  uint256 public bounty;\r\n\r\n  // Global keeping track of submissions\r\n  uint256 public id;\r\n\r\n  // Globals for deciding winner\r\n  uint256 public highestVote;\r\n  address public winningAddress;\r\n\r\n  // Blocktimes for contest start\r\n  uint256 public startBlock;\r\n  uint256 public endBlock;\r\n\r\n  event Staked(address indexed _from, uint256 _value);\r\n  event StakeReleased(address indexed _from, uint256 _value);\r\n  event SubmissionRegistered(address indexed owner);\r\n  event SubmissionApproved(address indexed owner);\r\n  event Voted(address indexed favoriteSubmission, address indexed who, uint256 amount);\r\n  event RemovedVote(address indexed unfortunateSubmission, address indexed who, uint256 amount);\r\n\r\n  function DevContest(address _tokenAddress, uint256 _startBlock, uint256 _endBlock) {\r\n      owner = msg.sender;\r\n      token = TokenInterface(_tokenAddress);\r\n      startBlock = _startBlock;\r\n      endBlock = _endBlock;\r\n      // Set id to 1 to reject submissions not in array\r\n      id = 1;\r\n  }\r\n\r\n  /*\r\n  * Staking functions\r\n  */\r\n\r\n  /// @dev Stakes ERC20 compatible token into contract. Must call 'approve' on current token contract first.\r\n  /// @param _amount Desired amount to stake in contract\r\n  /// @return Success of stake\r\n  function stake(uint256 _amount) returns (bool success) {\r\n\r\n    checkContestStatus();\r\n    // get contract's allowance\r\n    uint256 allowance = token.allowance(msg.sender, this);\r\n    // do not continue if allowance is less than amount sent\r\n    require(allowance >= _amount);\r\n    token.transferFrom(msg.sender, this, _amount);\r\n    stakedAmount[msg.sender] = stakedAmount[msg.sender].add(_amount);\r\n    Staked(msg.sender, _amount);\r\n    return true;\r\n  }\r\n\r\n  /// @dev Releases stake of ERC20 compatible token back to user by calling `transfer`.\r\n  /// @param _amount Desired amount to transfer from contract\r\n  /// @return Success of release\r\n  function releaseStake(uint256 _amount) returns (bool success) {\r\n\r\n    require(_amount <= stakedAmount[msg.sender]);\r\n    stakedAmount[msg.sender] = stakedAmount[msg.sender].sub(_amount);\r\n    token.transfer(msg.sender, _amount);\r\n    StakeReleased(msg.sender, _amount);\r\n    return true;\r\n  }\r\n\r\n  /*\r\n  * Submission functions\r\n  */\r\n\r\n  /// @dev Registers new submission that contract owner can approve.\r\n  /// @param _name of project submission\r\n  /// @param _desc of project submission\r\n  /// @param _url of project submission\r\n  /// @return Success of submission register\r\n  function registerSubmission (bytes32 _name, bytes32 _desc, bytes32 _url) returns (bool success){\r\n\r\n    checkContestStatus();\r\n\r\n    require(hasSubmitted[msg.sender] == false);\r\n\r\n    Submission memory newSub;\r\n    newSub.isApproved = false;\r\n    newSub.name = _name;\r\n    newSub.desc = _desc;\r\n    newSub.url = _url;\r\n    newSub.id = id;\r\n    id += 1;\r\n\r\n    submissions[msg.sender] = newSub;\r\n    hasSubmitted[msg.sender] = true;\r\n    unapprovedSubmissions.push(msg.sender);\r\n    SubmissionRegistered(msg.sender);\r\n    return true;\r\n  }\r\n\r\n  /// @dev Contract owner approves submissions to be shown\r\n  /// @param _subAddress of owner of submission to be approved\r\n  /// @param _index of owner address in approvedSubmissions\r\n  /// @return Success of approval\r\n  function approveSubmission (address _subAddress, uint256 _index) returns (bool success) {\r\n\r\n    require(owner == msg.sender);\r\n    //require(unapprovedSubmissions.length > _index);\r\n\r\n    Submission approvedSub = submissions[_subAddress];\r\n\r\n    // Cannot add same submission twice\r\n    require(approvedSub.isApproved == false);\r\n    require(approvedSub.id == _index);\r\n    require(approvedSub.id != 0);\r\n    approvedSub.isApproved = true;\r\n    approvedSubmissions.push(_subAddress);\r\n    SubmissionApproved(_subAddress);\r\n    return true;\r\n  }\r\n\r\n  /*\r\n  * Voting functions\r\n  */\r\n\r\n  /// @dev vote for favorite submissions\r\n  /// @param _favoriteSubmission of approved submissions participant wishes to vote for\r\n  /// @return Success of vote\r\n  function vote(address _favoriteSubmission) returns (bool success) {\r\n\r\n    require(stakedAmount[msg.sender] > 0);\r\n    require(hasVoted[msg.sender] == false);\r\n\r\n    Submission approvedSub = submissions[_favoriteSubmission];\r\n\r\n    voterCount[msg.sender] = stakedAmount[msg.sender];\r\n    approvedSub.votes = approvedSub.votes.add(stakedAmount[msg.sender]);\r\n    hasVoted[msg.sender] = true;\r\n    Voted(_favoriteSubmission, msg.sender, stakedAmount[msg.sender]);\r\n    return true;\r\n  }\r\n\r\n  /// @dev remove vote from submission\r\n  /// @param _unfortunateSubmission address of approved submission participant wishes to remove vote for\r\n  /// @return success of vote removal\r\n  function removeVote(address _unfortunateSubmission) returns (bool success) {\r\n    require(stakedAmount[msg.sender] > 0);\r\n    require(hasVoted[msg.sender] == true);\r\n\r\n    Submission approvedSub = submissions[_unfortunateSubmission];\r\n\r\n    approvedSub.votes = approvedSub.votes.sub(voterCount[msg.sender]);\r\n    voterCount[msg.sender] = 0;\r\n    hasVoted[msg.sender] = false;\r\n    RemovedVote(_unfortunateSubmission, msg.sender, stakedAmount[msg.sender]);\r\n    return true;\r\n  }\r\n\r\n  /*\r\n  * Owner functions\r\n  */\r\n\r\n  /// @dev Add bounty for contest winner. Contract owner must approve amount to be transferred\r\n  /// @param _amount of bounty to be added\r\n  function addBounty(uint256 _amount) {\r\n    require(owner == msg.sender);\r\n\r\n    uint256 allowance = token.allowance(msg.sender, this);\r\n    require(allowance >= _amount);\r\n\r\n    bounty = bounty.add(_amount);\r\n    token.transferFrom(msg.sender, this, _amount);\r\n  }\r\n\r\n  function completeContest() {\r\n    //require(hasContestStarted());\r\n    require(owner == msg.sender);\r\n\r\n    uint256 subCount = approvedSubmissions.length;\r\n\r\n    for (uint8 i= 0; i<subCount; i+=1 ) {\r\n      address subAddress = approvedSubmissions[i];\r\n      Submission sub = submissions[subAddress];\r\n\r\n      //need to deal with tie case\r\n      if(sub.votes > highestVote) {\r\n        highestVote = 0;\r\n        highestVote += sub.votes;\r\n        winningAddress = subAddress;\r\n      }\r\n    }\r\n    payout();\r\n  }\r\n\r\n  function payout() internal {\r\n    token.transfer(winningAddress, bounty);\r\n  }\r\n\r\n  /*\r\n  * Helper functions\r\n  */\r\n\r\n  function hasContestStarted() private constant returns (bool) {\r\n    // Check if global block.number is greater than or equal to start block and return result\r\n    return block.number >= startBlock;\r\n  }\r\n\r\n  function hasContestEnded() private constant returns (bool) {\r\n    // Return only greater than result because crowdsale goes until the endblock\r\n    return block.number > endBlock;\r\n  }\r\n\r\n  function checkContestStatus() {\r\n    if (!hasContestStarted()) revert();\r\n    if (hasContestEnded()) revert();\r\n  }\r\n\r\n  function getUnapprovedSubmissionAddresses() constant returns (address[] submissions) {\r\n    return unapprovedSubmissions;\r\n  }\r\n\r\n  function getApprovedSubmissionAddresses() constant returns (address[] submissions) {\r\n    return approvedSubmissions;\r\n  }\r\n}\r\n\r\n// TESTRPC SHORTCUTS\r\n/*\r\nDevContest.deployed().then(function(i) {voting = i})\r\nMPToken.deployed().then(function(i) {token = i})\r\ntoken.approve(voting.address, 100)\r\nvoting.stake(10)\r\nsender = web3.eth.accounts[0]\r\nvoting.registerSubmission(\"Woot project\", \"lots of woots\", \"http://woot.com\")\r\nvoting.getUnapprovedSubmissionAddresses()\r\nsub = addr\r\nvoting.approveSubmission(sub, 1)\r\nvoting.vote(sub)\r\n\r\n*/\r\n",
  "sourcePath": "C:\\Users\\cdavi\\Desktop\\Projects\\DevContest\\contracts\\DevContest.sol",
  "compiler": {
    "name": "solc",
    "version": "0.4.18+commit.9cf6e910.Emscripten.clang"
  },
  "schemaVersion": "1.0.1",
  "updatedAt": "2017-12-22T22:12:00.607Z"
}